:020000040800F2
:1000000000C00020B1200008E51B0008E71B000825
:10001000E91B0008EB1B0008ED1B000800000000B6
:100020000000000000000000000000008147000800
:10003000EF1B000800000000214800086548000888
:10004000F9200008F9200008F9200008F92000082C
:10005000F9200008F9200008F9200008F92000081C
:10006000F9200008F9200008F9200008F92000080C
:10007000F9200008F9200008F9200008F9200008FC
:10008000F9200008F9200008F9200008F9200008EC
:10009000F9200008F9200008F9200008F9200008DC
:1000A000F9200008F9200008F9200008F9200008CC
:1000B000F9200008F9200008F9200008F9200008BC
:1000C000F9200008F9200008F9200008F9200008AC
:1000D000F9200008F11B0008F9200008F9200008A9
:1000E000F9200008F9200008F9200008F92000088C
:1000F000F9200008F9200008F9200008F92000087C
:10010000F9200008F9200008F9200008F92000086B
:10011000011C0008111C0008211C0008311C0008EB
:10012000F9200008F9200008F9200008F92000084B
:1001300000000000000000000000000000000000BF
:1001400000000000000000000000000000000000AF
:10015000000000000000000000000000000000009F
:10016000000000000000000000000000000000008F
:10017000000000000000000000000000000000007F
:10018000000000000000000000000000000000006F
:10019000000000000000000000000000000000005F
:1001A000000000000000000000000000000000004F
:1001B000000000000000000000000000000000003F
:1001C000000000000000000000000000000000002F
:1001D000000000000000000000000000000000001F
:0401E0005FF8E0F1F3
:1001F00010B5054C237833B9044B13B10448AFF361
:1002000000800123237010BDC809002000000000F9
:1002100024E6000808B5034B1BB103490348AFF3BC
:10022000008008BD00000000CC09002024E6000882
:1002300081F0004102E000BF83F0004330B54FEA97
:1002400041044FEA430594EA050F08BF90EA020F04
:100250001FBF54EA000C55EA020C7FEA645C7FEA97
:10026000655C00F0E2804FEA5454D4EB5555B8BFBA
:100270006D420CDD2C4480EA020281EA030382EA2B
:10028000000083EA010180EA020281EA0303362DBD
:1002900088BF30BD11F0004F4FEA01314FF4801C90
:1002A0004CEA113102D0404261EB410113F0004FA2
:1002B0004FEA03334CEA133302D0524263EB430359
:1002C00094EA050F00F0A780A4F10104D5F1200EF7
:1002D0000DDB02FA0EFC22FA05F2801841F1000152
:1002E00003FA0EF2801843FA05F359410EE0A5F126
:1002F00020050EF1200E012A03FA0EFC28BF4CF057
:10030000020C43FA05F3C01851EBE37101F000450C
:1003100007D54FF0000EDCF1000C7EEB00006EEB19
:100320000101B1F5801F1BD3B1F5001F0CD34908A3
:100330005FEA30004FEA3C0C04F101044FEA4452FA
:1003400012F5800F80F09A80BCF1004F08BF5FEA81
:10035000500C50F1000041EB045141EA050130BD61
:100360005FEA4C0C404141EB0101013C28BFB1F573
:10037000801FE9D291F0000F04BF01460020B1FABE
:1003800081F308BF2033A3F10B03B3F120020CDA91
:100390000C3208DD02F1140CC2F10C0201FA0CF06F
:1003A00021FA02F10CE002F11402D8BFC2F1200CD4
:1003B00001FA02F120FA0CFCDCBF41EA0C0190408A
:1003C000E41AA2BF01EB0451294330BD6FEA0404D3
:1003D0001F3C1CDA0C340EDC04F11404C4F12002BE
:1003E00020FA04F001FA02F340EA030021FA04F3D0
:1003F00045EA030130BDC4F10C04C4F1200220FA27
:1004000002F001FA04F340EA0300294630BD21FA64
:1004100004F0294630BD94F0000F83F4801306BF2A
:1004200081F480110134013D4EE77FEA645C18BF1E
:100430007FEA655C29D094EA050F08BF90EA020FB5
:1004400005D054EA000C04BF1946104630BD91EAAD
:10045000030F1EBF0021002030BD5FEA545C05D1B0
:100460004000494128BF41F0004130BD14F58004EF
:100470003CBF01F5801130BD01F0004545F0FE4163
:1004800041F470014FF0000030BD7FEA645C1ABF98
:10049000194610467FEA655C1CBF0B46024650EACF
:1004A000013406BF52EA033591EA030F41F40021FB
:1004B00030BD00BF90F0000F04BF0021704730B581
:1004C0004FF4806404F132044FF000054FF0000156
:1004D00050E700BF90F0000F04BF0021704730B517
:1004E0004FF4806404F1320410F0004548BF4042EC
:1004F0004FF000013EE700BF42004FEAE2014FEA41
:1005000031014FEA02701FBF12F07F4393F07F4F1B
:1005100081F06051704732F07F4208BF704793F01E
:100520007F4F04BF41F40021704730B54FF4607431
:1005300001F0004521F000411CE700BF50EA010234
:1005400008BF704730B54FF000050AE050EA0102DD
:1005500008BF704730B511F0004502D5404261EB4D
:1005600041014FF4806404F132045FEA915C3FF48E
:10057000D8AE4FF003025FEADC0C18BF03325FEA2B
:10058000DC0C18BF033202EBDC02C2F1200300FADC
:1005900003FC20FA02F001FA03FE40EA0E0021FA01
:1005A00002F11444BDE600BF70B54FF0FF0C4CF4EF
:1005B000E06C1CEA11541DBF1CEA135594EA0C0FA1
:1005C00095EA0C0F00F0DEF82C4481EA030621EADC
:1005D0004C5123EA4C5350EA013518BF52EA033517
:1005E00041F4801143F4801338D0A0FB02CE4FF0C9
:1005F0000005E1FB02E506F00042E0FB03E54FF0F9
:100600000006E1FB03569CF0000F18BF4EF0010EF0
:10061000A4F1FF04B6F5007F64F5407404D25FEAEC
:100620004E0E6D4146EB060642EAC62141EA55519F
:100630004FEAC52040EA5E504FEACE2EB4F1FD0CE1
:1006400088BFBCF5E06F1ED8BEF1004F08BF5FEA5F
:10065000500E50F1000041EB045170BD06F0004611
:1006600046EA010140EA020081EA0301B4EB5C04BE
:10067000C2BFD4EB0C0541EA045170BD41F48011B6
:100680004FF0000E013C00F3AB8014F1360FDEBFDB
:10069000002001F0004170BDC4F10004203C35DAB7
:1006A0000C341BDC04F11404C4F1200500FA05F33A
:1006B00020FA04F001FA05F240EA020001F00042DB
:1006C00021F0004110EBD37021FA04F642EB060151
:1006D0005EEA430E08BF20EAD37070BDC4F10C047B
:1006E000C4F1200500FA04F320FA05F001FA04F23F
:1006F00040EA020001F0004110EBD37041F100012B
:100700005EEA430E08BF20EAD37070BDC4F1200535
:1007100000FA05F24EEA020E20FA04F301FA05F29D
:1007200043EA020321FA04F001F0004121FA04F245
:1007300020EA020000EBD3705EEA430E08BF20EA15
:10074000D37070BD94F0000F0FD101F0004640004F
:1007500041EB010111F4801F08BF013CF7D041EAD1
:10076000060195F0000F18BF704703F000465200D5
:1007700043EB030313F4801F08BF013DF7D043EAA6
:100780000603704794EA0C0F0CEA135518BF95EA5C
:100790000C0F0CD050EA410618BF52EA4306D1D1E3
:1007A00081EA030101F000414FF0000070BD50EA02
:1007B000410606BF1046194652EA430619D094EA8C
:1007C0000C0F02D150EA013613D195EA0C0F05D176
:1007D00052EA03361CBF104619460AD181EA0301CA
:1007E00001F0004141F0FE4141F470014FF0000082
:1007F00070BD41F0FE4141F4780170BD70B54FF01D
:10080000FF0C4CF4E06C1CEA11541DBF1CEA13559C
:1008100094EA0C0F95EA0C0F00F0A7F8A4EB05047E
:1008200081EA030E52EA03354FEA013100F0888075
:100830004FEA03334FF0805545EA131343EA12633E
:100840004FEA022245EA111545EA10654FEA0026F3
:100850000EF000419D4208BF964244F1FD0404F5AC
:10086000407402D25B084FEA3202B61A65EB030508
:100870005B084FEA32024FF480104FF4002CB6EBC5
:10088000020E75EB030E22BFB61A754640EA0C0045
:100890005B084FEA3202B6EB020E75EB030E22BF85
:1008A000B61A754640EA5C005B084FEA3202B6EBC6
:1008B000020E75EB030E22BFB61A754640EA9C0085
:1008C0005B084FEA3202B6EB020E75EB030E22BF55
:1008D000B61A754640EADC0055EA060E18D04FEA13
:1008E000051545EA16754FEA06164FEAC30343EAB3
:1008F00052734FEAC2025FEA1C1CC0D111F4801F80
:100900000BD141EA00014FF000004FF0004CB6E778
:1009100011F4801F04BF01430020B4F1FD0C88BF17
:10092000BCF5E06F3FF6AFAEB5EB030C04BFB6EB22
:10093000020C5FEA500C50F1000041EB045170BD15
:100940000EF0004E4EEA113114EB5C04C2BFD4EB42
:100950000C0541EA045170BD41F480114FF0000EC6
:10096000013C90E645EA060E8DE60CEA135594EA42
:100970000C0F08BF95EA0C0F3FF43BAF94EA0C0F45
:100980000AD150EA01347FF434AF95EA0C0F7FF4BA
:1009900025AF104619462CE795EA0C0F06D152EA0E
:1009A00003353FF4FDAE1046194622E750EA4106F2
:1009B00018BF52EA43067FF4C5AE50EA41047FF403
:1009C0000DAF52EA43057FF4EBAE12E74FEA410266
:1009D00012F5001215D211D56FF47873B3EB625291
:1009E00012D94FEAC12343F0004343EA505311F0B8
:1009F000004F23FA02F018BF404270474FF000004A
:100A0000704750EA013005D111F0004008BF6FF087
:100A1000004070474FF00000704700BF4FEA4102AE
:100A2000B2F1E04324BFB3F5001CDCF1FE5C0DD94C
:100A300001F0004C4FEAC0024CEA5070B2F1004F96
:100A400040EB830008BF20F00100704711F0804F99
:100A500021D113F13872BCBF01F00040704741F45E
:100A600080114FEA5252C2F11802C2F1200C10FA62
:100A70000CF320FA02F018BF40F001004FEAC12346
:100A80004FEAD32303FA0CFC40EA0C0023FA02F3EA
:100A90004FEA4303CCE77FEA625307D150EA0133C0
:100AA0001EBF4FF0FE4040F44000704701F0004090
:100AB00040F0FE4040F40000704700BF80F000406E
:100AC00002E000BF81F0004142001FBF5FEA410326
:100AD00092EA030F7FEA226C7FEA236C6AD04FEA26
:100AE0001262D2EB1363C1BFD2184140484041406B
:100AF000B8BF5B42192B88BF704710F0004F40F41D
:100B0000000020F07F4018BF404211F0004F41F438
:100B1000000121F07F4118BF494292EA030F3FD004
:100B2000A2F1010241FA03FC10EB0C00C3F1200317
:100B300001FA03F100F0004302D5494260EB4000A6
:100B4000B0F5000F13D3B0F1807F06D340084FEA11
:100B5000310102F10102FE2A51D2B1F1004F40EB06
:100B6000C25008BF20F0010040EA0300704749006E
:100B700040EB0000013A28BFB0F5000FEDD2B0FA0B
:100B800080FCACF1080CB2EB0C0200FA0CF0AABF2E
:100B900000EBC25052421843BCBFD04018437047CC
:100BA00092F0000F81F4000106BF80F400000132D2
:100BB000013BB5E74FEA41037FEA226C18BF7FEAA9
:100BC000236C21D092EA030F04D092F0000F08BFEB
:100BD0000846704790EA010F1CBF0020704712F0D2
:100BE0007F4F04D1400028BF40F00040704712F111
:100BF00000723CBF00F50000704700F0004343F076
:100C0000FE4040F4000070477FEA226216BF0846AB
:100C10007FEA23630146420206BF5FEA412390EA6E
:100C2000010F40F4800070474FF0000304E000BF64
:100C300010F0004348BF40425FEA000C08BF704715
:100C400043F0964301464FF000001CE050EA0102D9
:100C500008BF70474FF000030AE000BF50EA0102EE
:100C600008BF704711F0004302D5404261EB4101DB
:100C70005FEA010C02BF84460146002043F0B64300
:100C800008BFA3F18053A3F50003BCFA8CF2083A25
:100C9000A3EBC25310DB01FA02FC634400FA02FC2E
:100CA000C2F12002BCF1004F20FA02F243EB020035
:100CB00008BF20F00100704702F1200201FA02FC97
:100CC000C2F1200250EA4C0021FA02F243EB02008A
:100CD00008BF20EADC7070474FF0FF0C1CEAD052CE
:100CE0001EBF1CEAD15392EA0C0F93EA0C0F6FD08F
:100CF0001A4480EA010C400218BF5FEA41211ED06D
:100D00004FF0006343EA501043EA5111A0FB013158
:100D10000CF00040B1F5000F3EBF490041EAD3712D
:100D20005B0040EA010062F17F02FD2A1DD8B3F1A9
:100D3000004F40EBC25008BF20F00100704790F018
:100D4000000F0CF0004C08BF49024CEA502040EA6A
:100D500051207F3AC2BFD2F1FF0340EAC250704730
:100D600040F400004FF00003013A5DDC12F1190F6E
:100D7000DCBF00F000407047C2F10002410021FAE0
:100D800002F1C2F1200200FA02FC5FEA310040F1F8
:100D9000000053EA4C0308BF20EADC70704792F071
:100DA000000F00F0004C02BF400010F4000F013AA9
:100DB000F9D040EA0C0093F0000F01F0004C02BFA4
:100DC000490011F4000F013BF9D041EA0C018FE713
:100DD0000CEAD15392EA0C0F18BF93EA0C0F0AD019
:100DE00030F0004C18BF31F0004CD8D180EA01003F
:100DF00000F00040704790F0000F17BF90F0004FD8
:100E0000084691F0000F91F0004F14D092EA0C0FB9
:100E100001D142020FD193EA0C0F03D14B0218BF4C
:100E2000084608D180EA010000F0004040F0FE4092
:100E300040F40000704740F0FE4040F4400070472E
:100E40004FF0FF0C1CEAD0521EBF1CEAD15392EAAD
:100E50000C0F93EA0C0F69D0A2EB030280EA010C9D
:100E600049024FEA402037D04FF0805343EA111136
:100E700043EA10130CF000408B4238BF5B0042F194
:100E80007D024FF4000C8B4224BF5B1A40EA0C0039
:100E9000B3EB510F24BFA3EB510340EA5C00B3EB6B
:100EA000910F24BFA3EB910340EA9C00B3EBD10F59
:100EB00024BFA3EBD10340EADC001B0118BF5FEAAB
:100EC0001C1CE0D1FD2A3FF650AF8B4240EBC250D4
:100ED00008BF20F0010070470CF0004C4CEA502095
:100EE0007F32C2BFD2F1FF0340EAC250704740F4E4
:100EF00000004FF00003013A37E792F0000F00F0D6
:100F0000004C02BF400010F4000F013AF9D040EA53
:100F10000C0093F0000F01F0004C02BF490011F4E7
:100F2000000F013BF9D041EA0C0195E70CEAD153DF
:100F300092EA0C0F08D142027FF47DAF93EA0C0FC6
:100F40007FF470AF084676E793EA0C0F04D14B02AA
:100F50003FF44CAF08466EE730F0004C18BF31F05C
:100F6000004CCAD130F000427FF45CAF31F0004356
:100F70007FF43CAF5FE700BF4FF0FF3C06E000BFEF
:100F80004FF0010C02E000BF4FF0010C4DF804CD12
:100F90004FEA40024FEA41037FEA226C18BF7FEA22
:100FA000236C11D001B052EA530C18BF90EA010F24
:100FB00058BFB2EB030088BFC81738BF6FEAE170B3
:100FC00018BF40F0010070477FEA226C02D15FEA4F
:100FD000402C05D17FEA236CE4D15FEA412CE1D0BB
:100FE0005DF8040B704700BF844608466146FFE782
:100FF0000FB5FFF7C9FF002848BF10F1000F0FBD64
:101000004DF808EDFFF7F4FF0CBF012000205DF85C
:1010100008FB00BF4DF808EDFFF7EAFF34BF0120E1
:1010200000205DF808FB00BF4DF808EDFFF7E0FF7A
:1010300094BF012000205DF808FB00BF4DF808EDCB
:10104000FFF7D2FF94BF012000205DF808FB00BF2E
:101050004DF808EDFFF7C8FF34BF012000205DF810
:1010600008FB00BF844641EA000313F0030349D1A3
:10107000403A23D30B6803604B6843608B688360FE
:10108000CB68C3600B6903614B6943618B69836102
:10109000CB69C3610B6A03624B6A43628B6A8362EA
:1010A000CB6AC3620B6B03634B6B43638B6B8363D2
:1010B000CB6BC36340304031403ADBD230320BD38C
:1010C0000B6803604B6843608B688360CB68C360C8
:1010D00010301031103AF3D20C3205D351F8043BE2
:1010E00040F8043B043AF9D2043208D0D2071CBFBE
:1010F00011F8013B00F8013B01D30B8803806046E7
:10110000704700BF082A13D38B07B1D010F0030338
:10111000AED0C3F10403D21ADB071CBF11F8013BA8
:1011200000F8013BA4D331F8023B20F8023B9FE7D3
:10113000043AD9D3013A11F8013B00F8013BF9D246
:101140000B7803704B7843708B78837060467047E0
:101150004FF0FF3C06E000BF4FF0010C02E000BF83
:101160004FF0010C4DF804CD4FEA410C7FEA6C5C66
:101170004FEA430C18BF7FEA6C5C1BD001B050EA09
:10118000410C0CBF52EA430C91EA030F02BF90EAF4
:10119000020F0020704710F1000F91EA030F58BFB3
:1011A000994208BF90422CBFD8176FEAE37040F015
:1011B000010070474FEA410C7FEA6C5C02D150EAB3
:1011C000013C07D14FEA430C7FEA6C5CD6D152EA6E
:1011D000033CD3D05DF8040B704700BF8446104633
:1011E00062468C461946634600E000BF01B5FFF732
:1011F000B7FF002848BF10F1000F01BD4DF808ED02
:10120000FFF7F4FF0CBF012000205DF808FB00BFD2
:101210004DF808EDFFF7EAFF34BF012000205DF82C
:1012200008FB00BF4DF808EDFFF7E0FF94BF012079
:1012300000205DF808FB00BF4DF808EDFFF7CEFF7A
:1012400094BF012000205DF808FB00BF4DF808EDB9
:10125000FFF7C4FF34BF012000205DF808FB00BF8A
:101260004FEA410C7FEA6C5C02D150EA013C0AD1A2
:101270004FEA430C7FEA6C5C02D152EA033C02D194
:101280004FF0000070474FF00100704753B94AB962
:10129000002908BF00281CBF4FF0FF314FF0FF307E
:1012A00000F076B9ADF1080C6DE904CE00F006F857
:1012B000DDF804E0DDE9022304B070472DE9F047D2
:1012C000089E0D4604468846002B4DD18A4294461E
:1012D00068D9B2FA82F252B101FA02F3C2F12001E6
:1012E00020FA01F10CFA02FC41EA030894404FEAAB
:1012F0001C41B8FBF1F71FFA8CFE01FB178807FBB6
:101300000EF0230C43EA084398420AD91CEB03036E
:1013100007F1FF3580F01E81984240F21B81023FA9
:1013200063441B1AB3FBF1F001FB103300FB0EFE0C
:10133000A4B244EA0344A6450AD91CEB040400F114
:10134000FF3380F00981A64540F2068164440238EB
:101350000021A4EB0E0440EA07401EB10023D44054
:10136000C6E90043BDE8F0878B4208D9002E00F0A3
:10137000EE800021C6E900050846BDE8F087B3FA13
:1013800083F100294AD1AB4202D3824200F2FC80B1
:10139000841A65EB030301209846002EE2D0C6E9CB
:1013A0000048DFE702B9FFDEB2FA82F2002A40F01D
:1013B0009180A1EB0C0001214FEA1C471FFA8CFE23
:1013C000B0FBF7F307FB1300250C45EA00450EFBC5
:1013D00003F0A84208D91CEB050503F1FF3802D23F
:1013E000A84200F2CE8043462D1AB5FBF7F007FB6A
:1013F00010550EFB00FEA4B244EA0544A64508D9E8
:101400001CEB040400F1FF3502D2A64500F2B680C1
:101410002846A4EB0E0440EA03409EE7C1F12007F2
:101420008B4022FA07FC4CEA030C25FA07FA4FEA34
:101430001C49BAFBF9F820FA07F309FB18AA8D40FA
:101440001FFA8CFE1D4300FA01F308FB0EF02C0C72
:1014500044EA0A44A04202FA01F20BD91CEB04044C
:1014600008F1FF3A80F08880A04240F28580A8F120
:1014700002086444241AB4FBF9F009FB104400FB91
:101480000EFEADB245EA0444A64508D91CEB04049F
:1014900000F1FF356CD2A6456AD90238644440EAAF
:1014A0000840A0FB0295A4EB0E04AC42C846AE4631
:1014B00056D353D0002E69D0B3EB080264EB0E0470
:1014C00022FA01F304FA07F71F43CC40C6E900747F
:1014D000002147E70CFA02FCC2F1200125FA01F3D2
:1014E0004FEA1C4720FA01F195400D43B3FBF7F199
:1014F00007FB11331FFA8CFE280C40EA034001FB66
:101500000EF3834204FA02F408D91CEB000001F147
:10151000FF382FD283422DD902396044C01AB0FB64
:10152000F7F307FB1300ADB245EA004503FB0EF0ED
:10153000A84208D91CEB050503F1FF3816D2A842D2
:1015400014D9023B6544281A43EA014138E7314681
:10155000304607E72F46E4E61846F9E64B45A9D2A0
:10156000B9EB020865EB0C0E0138A3E74346EAE746
:10157000284694E74146D1E7D0467BE764440238E9
:1015800047E7023B65442FE7084606E73146E9E6B0
:10159000704700BF4FEA4002B2F1FE4F0FD34FF049
:1015A0009E03B3EB12620DD94FEA002343F00043D0
:1015B00010F0004F23FA02F018BF404270474FF07E
:1015C0000000704712F1610F01D1420205D110F005
:1015D000004008BF6FF0004070474FF000007047B8
:1015E00000B583B005F086FB044605F097FB054681
:1015F00005F04EF8FEF780FFCDE900012A462146AE
:10160000044805F02DFC05F0F5FB0A2002F0F2FF7E
:10161000E8E700BF64E6000808B504F005FE05F041
:101620007FF8052002F0E6FFF9E708B505F05CF861
:1016300004F0A6FF052002F0DDFFF9E708B50B4A2C
:1016400000210B4802F05EFF0A4B18600A4A002195
:101650000A4802F057FF0A4B18600A4A00210A485C
:1016600002F050FF094B186008BD00BFD8E6000823
:10167000E1150008EC09002090E6000819160008A2
:10168000E4090020B4E600082B160008E809002051
:101690002DE9F04188B00024049405940694079441
:1016A0002D4B9A6942F020029A619A6902F0200259
:1016B0000092009A9A6942F010029A619A6902F0C7
:1016C00010020192019A9A6942F004029A619A69A1
:1016D00002F004020292029A9A6942F008029A61A8
:1016E0009B6903F008030393039BDFF87080224695
:1016F000A021404600F08CFF194D22464FF4805146
:10170000284600F085FF072304930594069404A956
:10171000144800F05DFEA02304930127059706946A
:101720000226079604A9404600F052FE4FF4937338
:1017300004930594069404A9284600F049FE4FF44A
:101740008053049305970694079604A9284600F051
:101750003FFE08B0BDE8F0810010024000080140E3
:10176000000C01400010014008B50B480B4B036012
:101770000B4B436000238360C3604FF480420261DF
:1017800043618361C361036201F036F900B908BDAA
:1017900000F0D4F8FBE700BFF0090020005400403F
:1017A000A086010008B50B480B4B03600B4B436050
:1017B00000238360C3604FF4804202614361836110
:1017C000C361036201F018F900B908BD00F0B6F872
:1017D000FBE700BF440A002000580040A08601003B
:1017E00010B588B00023049305930693079303680C
:1017F000224A934204D0224A93421FD008B010BD1F
:10180000204CA36943F00803A361A36903F0080314
:101810000093009BC0230493122305930323079393
:1018200004A9194800F0D4FDE36943F40013E3610F
:10183000E36903F400130193019BDFE7114CA369F3
:1018400043F00803A361A36903F008030293029B1A
:101850004FF440630493122305930323079304A9D1
:10186000094800F0B5FDE36943F48003E361E369EF
:1018700003F480030393039BC0E700BF00540040C0
:101880000058004000100240000C014038B50446EA
:101890000268114B9A4208D02268104B9A420AD033
:1018A00022680F4B9A4210D038BD01220D490E48D4
:1018B00002F0CDFDF0E70D4D012229460C4802F063
:1018C000C6FD287805F094FBEAE7012209490A4899
:1018D00002F0BDFDE8E700BF00380140004C0040C9
:1018E000005000409C0A0020D40B00209D0A0020DC
:1018F0001C0C00209E0A0020640C002010B5044639
:1019000002680B4B9A4204D022680A4B9A420CD0D0
:1019100010BD094A136801331360092BF4DD134627
:1019200000221A6005F018FAEEE700F0F9FBEFE785
:101930000014004000100040980A002072B6FEE734
:1019400000B591B02822002106A805F025FF00234C
:1019500001930293039304930593012206924FF49B
:10196000803307930A9202220D920E934FF4E013F4
:101970000F9306A801F0D8FA80B90F230193022132
:101980000291002303934FF480620492059301A80F
:1019900001F0FCFC20B911B05DF804FBFFF7CEFFAD
:1019A000FFF7CCFF08B500F0A9FBFFF7C9FFFFF771
:1019B0006FFEFFF7D9FEFFF7F5FE00F03DF800F0EF
:1019C00021FA00F069FA00F081FA00F099FA00F0CB
:1019D00097F9114C0021204602F01AF90421204603
:1019E00002F016F901220D490D4802F030FD0122E6
:1019F0000C490D4802F02BFD01220C490C4802F065
:101A000026FD0C4801F0ACFE02F034FDFFF716FE97
:101A100002F052FDFEE700BF440B00209C0A0020AC
:101A2000D40B00209D0A00201C0C00209E0A0020E0
:101A3000640C00208C0B002008B50D480D4B036092
:101A40004FF48273436000238360C360036143618A
:101A50004FF400728261C3610362436283620A23AE
:101A6000C36201F08DFD00B908BDFFF767FFFBE71A
:101A7000A00A00200038004010B586B00023029371
:101A80000393049305930268174B9A4201D006B062
:101A900010BD03F5EC33DA6942F48042DA61DA69A9
:101AA00002F480420092009A9A6942F008029A6118
:101AB0009B6903F008030193019B4FF420430293B9
:101AC0000223039303230593084C02A9204600F048
:101AD0007FFC4FF48043029300230393049302A9F5
:101AE000204600F075FCD2E700380040000C0140B1
:101AF00000B583B0114B9A6942F001029A619A696C
:101B000002F001020092009ADA6942F08052DA6132
:101B1000DB6903F080530193019B00220F216FF0DA
:101B2000010000F035FB064A536823F0E06343F000
:101B30000073536003B05DF804FB00BF0010024067
:101B40000000014030B589B00446214BDA6942F00B
:101B50001002DA61DB6903F010030193019B02A913
:101B600003A801F0EFFC069BCBB901F0CBFC0346C8
:101B70001848A0FB03239B0C013B1748174A02603F
:101B800040F2E732C26043600023036183608361F7
:101B900001F030FF054630B1284609B030BD01F0F4
:101BA000B1FC4300E4E70C4801F0DAFD05460028EB
:101BB000F2D1362000F024FB0F2C01D90125EBE7F0
:101BC00000222146362000F0E3FA054B1C60E3E7D3
:101BD0000010024083DE1B43F80A00200010004082
:101BE00008000020FEE7FEE7FEE7FEE7FEE770479D
:101BF00008B5024802F0CCFA08BD00BFD40B0020A3
:101C000008B5024802F0C4FA08BD00BF1C0C002051
:101C100008B5024802F0BCFA08BD00BF640C002001
:101C200008B5024801F0DCFD08BD00BFF80A00203D
:101C300008B5024801F0D4FD08BD00BF8C0B0020A0
:101C40000120704708B505F069FD162303604FF0C9
:101C5000FF3008BD08B54FF0FF31FFF7F3FFFEE797
:101C600070B50C461646002506E0AFF3008021460D
:101C700001F8010B01350C46B542F6DB304670BD6C
:101C800070B50C461646002504E014F8010BAFF3BE
:101C900000800135B542F8DB304670BD4FF0FF30B3
:101CA00070474FF400534B6000207047012070478D
:101CB0000020704710B503460C4A0D490D480068D6
:101CC00040B10C4800680344521A934206D8094AAE
:101CD000136010BD0748084C0460F2E705F01EFDD4
:101CE0000C2303604FF0FF30F3E700BF00C000207B
:101CF00000040000400B00207061002070470000CD
:101D000000B583B00023009301930F480F4A02608F
:101D100047224260836040F2E732C260836101F093
:101D200069FE50B90023009301936946064801F00B
:101D3000E9FF28B903B05DF804FBFFF7FFFDF1E709
:101D4000FFF7FCFDF6E700BF8C0B002000140040FD
:101D50000368B3F1804F00D0704782B003F50433BD
:101D6000DA6942F00102DA61DB6903F001030193F1
:101D7000019B02B07047000002680E4B9A4200D0EF
:101D8000704700B583B003F5FE33DA6942F02002F4
:101D9000DA61DB6903F020030193019B0022052136
:101DA000372000F0F5F9372000F02AFA03B05DF88B
:101DB00004FB00BF0014004000B587B0002302936D
:101DC0000393049305930368B3F1804F02D007B0E7
:101DD0005DF804FB03F504339A6942F004029A614A
:101DE0009B6903F004030193019B032302930223E5
:101DF0000393059302A9024800F0EAFAE7E700BF5F
:101E00000008014000B58BB00023089309930193AB
:101E10000293039304930593069307931D484FF091
:101E20008042026047224260836040F2E732C26033
:101E30000361836101F00AFEF8B900230893099356
:101E400008A9144801F05EFFD0B960230193002275
:101E500002920392059201A90E4801F05BFE90B92F
:101E600004220DEB02010B4801F054FE70B9094841
:101E7000FFF7A2FF0BB05DF804FBFFF75FFDDCE7A7
:101E8000FFF75CFDE1E7FFF759FDE9E7FFF756FDD6
:101E9000EDE700BF440B002008B50A480A4B036079
:101EA0004FF4E133436000238360C36003610C227D
:101EB00042618361C36102F051F800B908BDFFF7C8
:101EC0003DFDFBE71C0C0020004C004008B50A4813
:101ED0000A4B03604FF4E133436000238360C36027
:101EE00003610C2242618361C36102F037F800B9DB
:101EF00008BDFFF723FDFBE7640C00200050004005
:101F000008B50A480A4B03604FF4E13343600023ED
:101F10008360C36003610C2242618361C36102F08C
:101F20001DF800B908BDFFF709FDFBE7D40B002041
:101F30000038014030B58DB00023089309930A930F
:101F40000B930368534A934207D0534A934236D0C7
:101F5000524A93426CD00DB030BD514BDA6942F415
:101F60000022DA61DA6902F400220192019A9A6988
:101F700042F010029A619B6903F010030293029BE6
:101F80004FF4806308930223099303230B93454D79
:101F900008A9284600F01CFA4FF4006308930024B7
:101FA00009940A9408A9284600F012FA224605214D
:101FB000342000F0EDF8342000F022F9CBE7384B64
:101FC000DA6942F48012DA61DA6902F4801203926B
:101FD000039A9A6942F010029A619A6902F010021B
:101FE0000492049A9A6942F020029A619B6903F074
:101FF00020030593059B4FF4805308930223099314
:1020000003230B9308A9274800F0E2F9042308935F
:10201000002409940A9408A9234800F0D9F922461B
:102020000521352000F0B4F8352000F0E9F892E7FA
:102030001B4B9A6942F480429A619A6902F4804289
:102040000692069A9A6942F004029A619B6903F02B
:1020500004030793079B4FF400730893022309932B
:1020600003230B93114D08A9284600F0B1F94FF452
:1020700080630893002409940A9408A9284600F074
:10208000A7F922460521252000F082F8252000F03E
:10209000B7F860E7004C00400050004000380140B5
:1020A00000100240001001400014014000080140EF
:1020B000FFF724FE0B480C490C4A002302E0D458D9
:1020C000C4500433C4188C42F9D3094A094C002384
:1020D00001E013600432A242FBD305F039FBFFF7A5
:1020E00061FC704700000020C809002050F500087E
:1020F000C809002070610020FEE7000008B5074A0B
:10210000136843F010031360032000F02FF80F2032
:10211000FFF718FDFFF7ECFC002008BD002002408F
:10212000034A1168034B1B780B441360704700BFD0
:10213000AC0C002004000020014B1868704700BF61
:10214000AC0C002038B50446FFF7F6FF0546B4F1A5
:10215000FF3F02D0044B1B781C44FFF7EDFF401BF0
:10216000A042FAD338BD00BF04000020074AD3685C
:1021700023F4E0631B041B0C000200F4E060034343
:1021800043F0BF6343F40033D360704700ED00E0D9
:1021900000B5194BDB68C3F30223C3F1070CBCF194
:1021A000040F28BF4FF0040C03F1040EBEF1060F1C
:1021B00018D9033B4FF0FF3E0EFA0CFC21EA0C014C
:1021C00099400EFA03F322EA0303194300280BDBBC
:1021D0000901C9B200F1604000F5614080F80013C8
:1021E0005DF804FB0023E5E700F00F000901C9B228
:1021F000024B1954F4E700BF00ED00E014ED00E0DD
:10220000002807DB00F01F02400901239340024A27
:1022100042F82030704700BF00E100E090F8213024
:10222000DBB2022B06D004238363002380F8203026
:10223000012070470268136823F00E0313600268E0
:10224000136823F001031360036CC16B012202FACF
:1022500003F34B6080F82120002380F820301846DB
:102260007047000008B590F82130DBB2022B03D094
:1022700004238363012008BD0268136823F00E0362
:1022800013600268136823F00103136003684C4A6B
:1022900093424ED9783A934224D01432934230D0AC
:1022A000143293422FD0143293422FD014329342DF
:1022B0002FD0143293422FD0143293422FD002F5F4
:1022C000627293422ED0143293422DD01432934234
:1022D0002CD01432934202D04FF4803203E04FF4FA
:1022E000805200E00122374B5A60012380F82130F0
:1022F000002380F82030436B002B5ED098470020ED
:10230000B9E71022EFE74FF48072ECE74FF4805208
:10231000E9E74FF48032E6E74FF48012E3E74FF04D
:102320008072E0E70122DEE71022DCE74FF48072E2
:10233000D9E7254A934224D01432934225D014324F
:10234000934224D01432934224D01432934224D0A6
:102350001432934224D01432934224D002F5627294
:10236000934223D01432934222D01432934221D08C
:102370001432934202D04FF4803203E04FF4805283
:1023800000E00122114B5A60AFE71022FAE74FF448
:102390008072F7E74FF48052F4E74FF48032F1E7B0
:1023A0004FF48012EEE74FF08072EBE70122E9E78D
:1023B0001022E7E74FF48072E4E700205BE700BFFC
:1023C0008000024000040240080002400000024079
:1023D00070B582B00024A446B0E0874DAA4210D068
:1023E00007D9864DAA420CD005F58035AA4208D0FF
:1023F00013E0A5F58015AA4203D005F57025AA4281
:1024000007D18A68002A62D0012A5BD04361082480
:1024100003E0A5F58015AA42F3D0BEF1FF0F58D80E
:102420000646BEF1FF0F56D84FEA8C0233680F25DF
:10243000954023EA050304FA02F2134333604B6824
:1024400013F0805F78D06E4B9A6942F001029A6176
:102450009B6903F001030193019B4FEA9C02951CC9
:10246000684B53F825600CF003039D000F23AB402D
:1024700026EA0306644B984233D003F58063984202
:1024800000F0988003F58063984200F0958003F592
:102490008063984200F0928003F58063984200F0D8
:1024A0008F8003F58063984219D006231AE0CC6828
:1024B000B3E7CC680434B0E7CC680834ADE7CC6847
:1024C0000C34AAE703610824A7E70024A5E7042445
:1024D000A3E7061DA5E7ACF108029200A6E70523D5
:1024E00000E00023AB4033430232464D45F8223032
:1024F0004B6813F4801F65D0444A936843EA0E0387
:1025000093604B6813F4001F62D0404AD36843EADB
:102510000E03D3604B6813F4003F5FD03B4A53680F
:1025200043EA0E0353604B6813F4803F5CD0374A94
:10253000136843EA0E0313600CF1010C0A6832FAC7
:102540000CF357D0012303FA0CF302EA030E33EA2B
:102550000202F1D14A68122A3FF63FAF122A3FF633
:102560005CAF01A555F822F003240008AF24000851
:10257000B9240008CB2400081B2400081B240008F1
:102580001B2400081B2400081B2400081B2400082F
:102590001B2400081B2400081B2400081B2400081F
:1025A0001B2400081B2400081B240008B324000877
:1025B000BF240008012395E7022393E7032391E753
:1025C00004238FE7114A936823EA0E03936098E788
:1025D0000E4AD36823EA0E03D3609BE70B4A536885
:1025E00023EA0E0353609EE7084A136823EA0E03AA
:1025F0001360A1E702B070BD00002210000031108E
:1026000000100240000001400008014000040140A9
:102610000AB10161704709040161704703685A6992
:1026200012F4806F01D1002070476FF480625A610C
:1026300000230363202280F83D2080F83E30026CA6
:1026400042F00402026480F83C30012070472DE91A
:10265000F04106460C46174698463BE0FFF76CFDF6
:10266000069BC01A404502D8B8F1000F32D1012DA7
:1026700018D033689B6924EA03039BB2B3FA83F34F
:102680005B099F4226D100233363202286F83D2038
:1026900086F83E30326C42F02002326486F83C30DC
:1026A000012027E033685B6924EA03039BB2B3FA95
:1026B00083F35B09E5E733685B6924EA030C1FFADF
:1026C0008CFCBCFA8CFC4FEA5C1C674511D1B8F15C
:1026D000FF3FC3D1C4F30745012DECD033689B699C
:1026E00024EA030C1FFA8CFCBCFA8CFC4FEA5C1C3D
:1026F000EBE70020BDE8F0812DE9F84305460E46E2
:102700009046994653E01A6842F400721A602B68AA
:102710006FF480625A6100232B63202285F83D20EC
:1027200085F83E302A6C42F004022A6485F83C3079
:1027300001204AE0FFF700FDA0EB0900404502D868
:10274000B8F1000F33D1012F17D02B689B6926EA0F
:1027500003039BB2003B18BF012343B300232B6349
:10276000202285F83D2085F83E302A6C42F0200278
:102770002A6485F83C30012027E02B685B6926EA53
:1027800003039BB2003B18BF0123E6E72B689C695B
:1027900026EA0404A4B2003C18BF0124A4B12B68AB
:1027A0005A6912F4806FAED1B8F1FF3FC2D1C6F3BF
:1027B0000747012FEAD12B685C6926EA0404A4B21A
:1027C000003C18BF0124E9E70020BDE8F88370B59C
:1027D00004460D46164623685B6913F0800F21D12D
:1027E0002046FFF71BFFF8B9B5F1FF3FF3D0FFF725
:1027F000A3FC801BA84201D8002DECD123685B69A3
:1028000013F0800FE7D100232363202284F83D20BA
:1028100084F83E30226C42F02002226484F83C307E
:10282000012000E0002070BD0120FCE72DE9F04709
:1028300084B004460D46164699460C9FDDF8348058
:102840000268136843F4806313600368196841F4F5
:1028500080711960CDF800803B4600224FF00111D5
:10286000FFF7F5FE70B95FFA85FA236805F0FE05FB
:102870001D6143463A4641492046FFF73DFF68B196
:10288000012008E023681B6813F4807F02D04FF416
:1028900000732364032004B0BDE8F0870023039392
:1028A00023685A6903929B690393039B4246394606
:1028B0002046FFF78CFF80B9B9F1010F18D12368CA
:1028C000F6B21E61424639462046FFF780FF68B3E4
:1028D000236C042B24D00120DDE7236C042B01D0D2
:1028E0000120D8E72268136843F400731360F7E708
:1028F0002368320A1A61424639462046FFF767FFCD
:1029000018B92368F6B21E61DCE7236C042B01D0F2
:102910000120C0E72268136843F400731360F7E7EF
:102920002268136843F400731360D4E722681368C5
:1029300043F480731360CDF800803B4600224FF0D3
:1029400001112046FFF783FE68B922684AF00103AF
:10295000136143463A4609492046FFF7CDFE002859
:1029600099D0012097E723681B6813F4807F02D079
:102970004FF40073236403208DE700BF02000100C1
:1029800070B504460D46164614E06FF010025A6109
:1029900000232363202284F83D2084F83E30226CFB
:1029A000226484F83C30012025E023685B6913F041
:1029B000400F10D02368586910F0400F1AD15869A1
:1029C00010F0100FE1D1FFF7B7FB801BA842ECD845
:1029D000002DEFD1E9E700232363202284F83D2076
:1029E00084F83E30226C42F02002226484F83C30AD
:1029F000012000E0002070BD002800F0CC8070B500
:102A0000044690F83D30002B77D0242384F83D30E5
:102A10002268136823F0010313602268136843F4EB
:102A2000004313602268136823F40043136000F02E
:102A300069FD62685A4B9A4264D85A4B98428CBFDF
:102A400000230123002B40F0A8805749A1FB00314F
:102A50008B0C25686A6822F03F0242EA91426A6064
:102A600021680A6A22F03F0266684D4DAE424FD897
:102A7000013313430B622168CA6922F44F4222F0EA
:102A8000FF026668464B9E424CD8431E7600B3FB5D
:102A9000F6F3013340F6FC70034278D0C3F30B0326
:102AA0001343CB6121680B6823F0C003E269206AFD
:102AB000024313430B6021688B6823F4034323F024
:102AC000FF032269E068024313438B602168CB68EF
:102AD00023F0FF036269A06902431343CB602268BD
:102AE000136843F00103136000202064202384F85E
:102AF0003D30206384F83E0070BD80F83C30FEF726
:102B00006FFE82E7294B98428CBF0023012399E78F
:102B10004FF4967505FB03F3254DA5FB03539B0965
:102B20000133A6E7A368BBB9451E06EB460CB5FB0F
:102B3000FCF50135C5F30B05B5FA85F56D0945BB07
:102B4000C3B9013806EB4603B0FBF3F30133C3F31B
:102B50000B0343F40043A3E7451E06EB860C0CEB86
:102B60008C0CB5FBFCF50135C5F30B05B5FA85F505
:102B70006D09E4E7013806EB860303EB8303B0FB42
:102B8000F3F30133C3F30B0343F4404388E7042317
:102B900086E7012384E7012070470120ACE700BFEE
:102BA000A08601007F841E0083DE1B43FF083D00DA
:102BB000D34D62102DE9F04389B004460F4690468C
:102BC0009946129E00230793FFF7B6FA054694F83C
:102BD0003D00C0B2202804D00227384609B0BDE825
:102BE000F08300951923012281492046FFF72FFD2C
:102BF000002840F0728194F83C30012B00F06F8186
:102C0000012384F83C3023681A6812F0010F03D1C5
:102C10001A6842F001021A602268136823F4006304
:102C20001360222384F83D30402384F83E30002393
:102C30002364109B6362BDF844306385638D2385F4
:102C40006C4BE362019500964B464246394620465E
:102C5000FFF7ECFD0746002840F04381238D5BB968
:102C6000039323685A6903929A690392039A1A6834
:102C700042F400721A60EDE0012B0FD0022B21D03C
:102C80002268136843F4806313600023069323686B
:102C90005A6906929B690693069BDBE022681368DB
:102CA00023F48063136072B60023049323685A6987
:102CB00004929A690492049A1A6842F400721A60A3
:102CC00062B6C7E02268136843F40063136072B60B
:102CD0000023059323685A6905929A690592059A1B
:102CE0001A6822F480621A6062B6B3E02A4631465E
:102CF0002046FFF745FE002840F0F58023681A695A
:102D0000636A1A70636A01336362238D013B238512
:102D1000638D9BB2013B9BB263859BE0009533467C
:102D2000002235492046FFF792FC002840F0DF8062
:102D30002268136823F48063136072B623681A69EB
:102D4000636A1A70636A01336362238D013B2385D2
:102D5000638D9BB2013B9BB26385284B1B68DB08EC
:102D6000274AA2FB03231B0A03EB8303C3EBC30322
:102D70000793079B013B0793079B002B28D02368F1
:102D80005A6912F0040FF4D01A6842F400721A6003
:102D900023681A69636A1A70636A01336362238D58
:102DA000013B2385638D9BB2013B9BB2638562B679
:102DB00023681A69636A1A70636A01336362238D38
:102DC000013B2385638D9BB2013B9BB2638541E050
:102DD0002363202284F83D2084F83E30226C42F0A8
:102DE0002002226462B684F83C300127F5E600BF79
:102DF000020010000000FFFF04000100000000209E
:102E000089B5F8142A4631462046FFF7B9FD002857
:102E10006FD123681A69636A1A70626A531C63620D
:102E2000238D013B2385638D9BB2013B9BB2638560
:102E30002368596911F0040F0CD01B695370636A41
:102E400001336362238D013B2385638D9BB2013B7C
:102E50009BB26385238D002B36D0032BD2D8012B58
:102E60003FF444AF022B7FF459AF00953346002264
:102E700021492046FFF7EBFB002836D172B62268C5
:102E8000136843F40073136023681A69636A1A7045
:102E9000636A01336362238D013B2385638D9BB29B
:102EA000013B9BB2638562B623681A69636A1A7034
:102EB000636A01336362238D013B2385638D9BB27B
:102EC000013B9BB26385C5E7202384F83D30002396
:102ED00084F83E3084F83C307FE602277DE6022706
:102EE0007BE6012779E6012777E6012775E60127CA
:102EF00073E6012771E600BF0400010082B0084BB1
:102F00001B68084AA2FB03235B0A00FB03F301933F
:102F100000BF019B5A1E0192002BF9D102B07047ED
:102F200000000020D34D6210002800F0F18170B540
:102F300082B00446036813F0010F2CD0994B5B68F4
:102F400003F00C03042B1DD0964B5B6803F00C03BD
:102F5000082B12D06368B3F5803F41D0002B55D1C8
:102F600003F1804303F504331A6822F480321A60B7
:102F70001A6822F480221A6037E08A4B5B6813F4E7
:102F8000803FE7D0874B1B6813F4003F03D0636892
:102F9000002B00F0BF81236813F0020F75D0814B26
:102FA0005B6813F00C0F5FD07E4B5B6803F00C0383
:102FB000082B54D02369002B00F08A807A4B012221
:102FC0001A60FFF7B9F80546764B1B6813F0020F3D
:102FD00075D1FFF7B1F8401B0228F5D903209EE117
:102FE000704A136843F480331360636843B3FFF798
:102FF000A3F805466B4B1B6813F4003FCBD1FFF7DA
:103000009BF8401B6428F5D9032088E1B3F5A02F75
:1030100009D0644B1A6822F480321A601A6822F4CC
:1030200080221A60E1E703F18043A3F53C331A687C
:1030300042F480221A601A6842F480321A60D4E79F
:10304000FFF77AF80546574B1B6813F4003FA2D0F0
:10305000FFF772F8401B6428F5D903205FE1514B5C
:103060005B6813F4803FA5D14E4B1B6813F0020F31
:1030700003D02369012B40F04F814A4A136823F0A3
:10308000F803616943EAC1031360236813F0080F72
:1030900033D0A369002B5CD0434B0122C3F88024BA
:1030A000FFF74AF805463F4B5B6A13F0020F21D148
:1030B000FFF742F8401B0228F5D903202FE1394AD7
:1030C000136823F0F803616943EAC1031360DCE786
:1030D000354B00221A60FFF72FF80546314B1B686D
:1030E00013F0020FD1D0FFF727F8401B0228F5D9C3
:1030F000032014E10120FFF701FF236813F0040F00
:1031000000F09680274BDB6913F0805F34D1254BAC
:10311000DA6942F08052DA61DB6903F0805301938F
:10312000019B0125214B1B6813F4807F26D0E368A7
:10313000012B3DD0002B53D103F1804303F5043321
:103140001A6A22F001021A621A6A22F004021A6252
:1031500033E0154B0022C3F88024FEF7EDFF05464F
:10316000104B5B6A13F0020FC7D0FEF7E5FF401B60
:103170000228F5D90320D2E00025D3E70B4A1368D3
:1031800043F480731360FEF7D7FF0646074B1B68B6
:1031900013F4807FCBD1FEF7CFFF801B6428F5D9D5
:1031A0000320BCE0001002400000424200700040DA
:1031B0005F4A136A43F001031362E36833B3FEF717
:1031C000BBFF06465A4B1B6A13F0020F2FD1FEF7C6
:1031D000B3FF801B41F288339842F3D903209EE06D
:1031E000052B09D0524B1A6A22F001021A621A6AA0
:1031F00022F004021A62E0E74D4B1A6A42F0040220
:103200001A621A6A42F001021A62D6E7FEF794FFC8
:103210000646474B1B6A13F0020F08D0FEF78CFFDF
:10322000801B41F288339842F3D9032077E0E5B957
:10323000E369002B72D03E4A526802F00C02082A61
:1032400056D0022B17D03B4B00221A66FEF774FFB4
:103250000446374B1B6813F0007F47D0FEF76CFF26
:10326000001B0228F5D9032059E0314AD36923F025
:103270008053D361DCE72F4B00221A66FEF75CFF18
:1032800005462B4B1B6813F0007F06D0FEF754FF5A
:10329000401B0228F5D9032041E0236AB3F5803FA3
:1032A0001AD023494B6823F47413226A606A0243DC
:1032B00013434B601F4B01221A66FEF73DFF044685
:1032C0001B4B1B6813F0007F0ED1FEF735FF001B70
:1032D0000228F5D9032022E0154A536823F400336D
:1032E000A1680B435360DCE7002018E0002016E0E3
:1032F000012B16D00E4B5B6803F48031226A914299
:1033000011D103F47013626A93420ED1002006E0DB
:1033100001207047012002E0012000E0002002B0FF
:1033200070BD0120FBE70120F9E70120F7E700BFAE
:1033300000100240000042420F4B5B6803F00C0299
:10334000082A01D00D487047C3F383420C49885CBA
:1033500013F4803F0BD0084B5B68C3F34043094A2A
:10336000D35C064A02FB00F0B0FBF3F07047064B5B
:1033700003FB00F0704700BF0010024000127A000B
:1033800014E7000824E7000800093D00002800F0C9
:10339000A08070B50D460446524B1B6803F007032E
:1033A0008B420BD24F4A136823F007030B43136081
:1033B000136803F007038B4240F08D80236813F0FD
:1033C000020F17D013F0040F04D0474A536843F498
:1033D000E0635360236813F0080F04D0424A536837
:1033E00043F460535360404A536823F0F003A168EC
:1033F0000B435360236813F0010F31D06368012B36
:1034000020D0022B25D0384A126812F0020F64D067
:1034100035494A6822F0030213434B60FEF78CFEE5
:103420000646314B5B6803F00C036268B3EB820F16
:1034300016D0FEF781FE801B41F288339842F0D906
:10344000032045E0284A126812F4003FE0D1012031
:103450003EE0254A126812F0007FD9D1012037E002
:10346000204B1B6803F00703AB420AD91D4A1368BF
:1034700023F007032B431360136803F00703AB42E9
:103480002DD1236813F0040F06D0174A536823F494
:10349000E063E1680B435360236813F0080F07D023
:1034A000114A536823F46053216943EAC10353600E
:1034B000FFF742FF0C4B5B68C3F303130B4AD35C6B
:1034C000D8400B4B18600B4B1868FEF73BFB0020F5
:1034D00070BD012070470120FAE70120F8E70120C4
:1034E000F6E700BF0020024000100240FCE60008A2
:1034F0000000002008000020014B1868704700BF42
:103500000000002008B5FFF7F7FF044B5B68C3F32A
:103510000223034AD35CD84008BD00BF001002401C
:103520000CE7000808B5FFF7E7FF044B5B68C3F33F
:10353000C223034AD35CD84008BD00BF001002403C
:103540000CE700080F2303600B4B5A6802F00302DC
:1035500042605A6802F0F00282605A6802F4E06247
:10356000C2605B68DB0803F4E0630361034B1B6824
:1035700003F007030B607047001002400020024078
:10358000002856D010B50446436A33B94368B3F5F2
:10359000827F05D00023C36102E000230361436101
:1035A0000023A36294F85130002B3CD0022384F80E
:1035B00051302268136823F040031360636803F4FA
:1035C0008273A26802F404421343E26802F40062C8
:1035D0001343226902F002021343626902F00102FE
:1035E0001343A26902F400721343E26902F0380245
:1035F0001343226A02F080021343A26A02F40052CB
:10360000216813430B60638B226803F0040353604B
:103610002268D36923F40063D3610020606501232D
:1036200084F8513010BD84F850302046FEF724FA5B
:10363000BCE701207047000030B4036A026A22F040
:10364000010202624268846924F073040D682C430D
:1036500023F0020C8B6843EA0C03104DA84203D000
:1036600005F50065A84205D123F00803CD682B437A
:1036700023F00403094DA84203D005F50065A842D4
:1036800005D122F440724D692A438D692A43426074
:1036900084614A684263036230BC7047002C014079
:1036A00030B4036A026A22F4807202624268C4691A
:1036B00024F0730C0C6844EA0C0523F400738C6846
:1036C00043EA0423114CA04203D004F50064A04255
:1036D00006D123F40063CC6843EA042323F4806317
:1036E0000A4CA04203D004F50064A04207D122F4A2
:1036F00040524C6942EA04128C6942EA0412426068
:10370000C5614A68C263036230BC7047002C014047
:1037100030B4036A026A22F4805202624468C269C9
:1037200022F4E6420D6842EA052223F400538D6834
:1037300043EA0533094DA84203D005F50065A842C8
:1037400004D124F480444D6944EA85144460C26184
:103750004A680264036230BC704700BF002C01401D
:1037600090F83D30DBB2012B2FD1022380F83D30A1
:103770000268D36843F00103D3600368154A93429B
:1037800018D002F50062934214D0B3F1804F11D0EB
:10379000A2F5983293420DD002F58062934209D08F
:1037A00002F58062934205D01A6842F001021A6065
:1037B000002070479A6802F00702062A07D01A68AC
:1037C00042F001021A60002070470120704700207B
:1037D000704700BF002C014070477047704770472A
:1037E00010B5044603681A6912F0020F11D0DA68A6
:1037F00012F0020F0DD06FF002021A61012303775D
:1038000003689B6913F0030F70D0FFF7E6FF0023F6
:10381000237723681A6912F0040F12D0DA6812F0C5
:10382000040F0ED06FF004021A610223237723687D
:103830009B6913F4407F5FD02046FFF7CEFF002343
:10384000237723681A6912F0080F12D0DA6812F091
:10385000080F0ED06FF008021A6104232377236843
:10386000DB6913F0030F4ED02046FFF7B6FF0023AD
:10387000237723681A6912F0100F12D0DA6812F059
:10388000100F0ED06FF010021A61082323772368FF
:10389000DB6913F4407F3DD02046FFF79EFF0023F5
:1038A000237723681A6912F0010F03D0DA6812F047
:1038B000010F36D123681A6912F0800F03D0DA683D
:1038C00012F0800F34D123681A6912F0400F03D030
:1038D000DA6812F0400F32D123681A6912F0200F13
:1038E00003D0DA6812F0200F30D110BDFFF774FF5B
:1038F0002046FFF773FF8AE72046FFF76DFF20465B
:10390000FFF76CFF9BE72046FFF766FF2046FFF7B7
:1039100065FFACE72046FFF75FFF2046FFF75EFF3D
:10392000BDE76FF001021A612046FDF7E7FFC1E72E
:103930006FF080021A61204600F023FAC3E76FF0AF
:1039400040021A612046FFF74AFFC5E76FF02002E8
:103950001A61204600F014FAC7E700000368244A01
:10396000904212D002F5006290420ED0B0F1804F2A
:103970000BD0A2F59832904207D002F580629042B7
:1039800003D002F58062904203D123F070034A68AD
:103990001343174A904212D002F5006290420ED0B3
:1039A000B0F1804F0BD0A2F59832904207D002F5CB
:1039B0008062904203D002F58062904203D123F4EA
:1039C0004073CA68134323F080034A6913430360BA
:1039D0008B68C3620B688362054B984203D003F582
:1039E0000063984201D10B6903630123436170476F
:1039F000002C014040B310B5044690F83D30F3B1BF
:103A0000022384F83D30214651F8040BFFF7A6FF4E
:103A1000012384F8463084F83E3084F83F3084F83F
:103A2000403084F8413084F8423084F8433084F8E0
:103A3000443084F8453084F83D30002010BD80F8D3
:103A40003C30FEF799F9DBE70120704740B310B531
:103A5000044690F83D30F3B1022384F83D3021460E
:103A600051F8040BFFF77AFF012384F8463084F8FD
:103A70003E3084F83F3084F8403084F8413084F898
:103A8000423084F8433084F8443084F8453084F878
:103A90003D30002010BD80F83C30FEF759F9DBE7DF
:103AA0000120704730B4036A026A22F010020262F9
:103AB0004468826922F4E6420D6842EA052223F056
:103AC00020038D6843EA0513114DA84203D005F584
:103AD0000065A84206D123F08003CD6843EA0513B0
:103AE00023F040030A4DA84203D005F50065A84223
:103AF00007D124F440644D6944EA85048D6944EAA1
:103B00008504446082614A688263036230BC704706
:103B1000002C014038B590F83C30012B66D00446AB
:103B20000D46012380F83C300C2A5AD8DFE802F019
:103B3000075959591B595959305959594400006866
:103B4000FFF77AFD2268936943F0080393612268C6
:103B5000936923F0040393612268936929690B43F5
:103B6000936100203EE00068FFF79CFF22689369A4
:103B700043F4006393612268936923F48063936143
:103B800022689369296943EA01239361002029E0AF
:103B90000068FFF785FD2268D36943F00803D3610D
:103BA0002268D36923F00403D3612268D3692969A9
:103BB0000B43D361002015E00068FFF7A9FD2268E0
:103BC000D36943F40063D3612268D36923F480632B
:103BD000D3612268D369296943EA0123D3610020B4
:103BE00000E00120002384F83C3038BD0220FCE7CF
:103BF00001F01F01012303FA01FC036A23EA0C030D
:103C00000362036A02FA01F10B430362704700008A
:103C100010B50446084600293AD194F83E30DBB28C
:103C2000013B18BF0123002B66D1002849D1022394
:103C300084F83E30012201462068FFF7D9FF23684F
:103C40002F4A934203D002F50062934203D15A6C8B
:103C500042F400425A642368294A934241D002F553
:103C6000006293423DD0B3F1804F3AD0A2F5983232
:103C7000934236D002F58062934232D002F58062E0
:103C800093422ED01A6842F001021A60002032E0FE
:103C9000042908D008290DD094F84130DBB2013B4B
:103CA00018BF0123BFE794F83F30DBB2013B18BFD8
:103CB0000123B8E794F84030DBB2013B18BF012381
:103CC000B1E7042805D0082807D0022384F8413042
:103CD000B0E7022384F83F30ACE7022384F8403099
:103CE000A8E79A6802F00702062A07D01A6842F08D
:103CF00001021A60002010BD0120FCE70020FAE755
:103D0000002C014090F83C30012B34D010B401233A
:103D100080F83C30022380F83D3003685A689C6884
:103D200022F0700C0A6842EA0C025A600368134AD7
:103D3000934212D002F5006293420ED0B3F1804F4D
:103D40000BD0A2F59832934207D002F580629342DD
:103D500003D002F58062934204D124F080044A68C3
:103D600014439C60012380F83D30002380F83C30F0
:103D7000184610BC70470220704700BF002C01405D
:103D800070477047026802F10C0353E8003F23F4C8
:103D900090730C3242E800310029F3D1026802F13D
:103DA000140353E8003F23F00103143242E80031CA
:103DB0000029F3D1036B012B05D0202380F842307A
:103DC000002303637047026802F10C0353E8003FCD
:103DD00023F010030C3242E800310029F3D1ECE764
:103DE00090F84130DBB2212B01D00220704783686C
:103DF000B3F5805F17D0036A5A1C02621A78036811
:103E00005A60C38C9BB2013B9BB2C3844BB902681E
:103E1000D36823F08003D3600268D36843F0400383
:103E2000D360002070470369002BE4D1036A1B882C
:103E30000268C3F308035360036A02330362E0E7D6
:103E400010B504460268136923F44053C1680B435C
:103E5000136183680269134342691A430168CB689E
:103E600023F4B05323F00C031343CB60026853696F
:103E700023F4407381690B4353610268134B9A42E8
:103E800020D0FFF73FFB024602EB820202EB8202E8
:103E900063689B00B2FBF3F20D48A0FB02314909B5
:103EA000642303FB11231B013233A0FB03235B09B3
:103EB00003F0F00202EB011203F00F032168134438
:103EC0008B6010BDFFF72EFB0246DDE70038014096
:103ED0001F85EB512DE9F84305460F4616469946D6
:103EE000DDF820802C68246837EA04030CBF4FF00B
:103EF000010C4FF0000CB4452DD1B8F1FF3FF1D0CB
:103F0000B8F1000F05D0FEF717F9A0EB0900404506
:103F1000E8D92A6802F10C0353E8003F23F4D07378
:103F20000C3242E800310029F3D12A6802F114036F
:103F300053E8003F23F00103143242E80031002926
:103F4000F3D1202385F8413085F84230002385F8ED
:103F50004030032000E00020BDE8F88360B310B5D6
:103F6000044690F8413013B3242384F8413022688A
:103F7000D36823F40053D3602046FFF761FF226823
:103F8000136923F4904313612268536923F02A03D1
:103F900053612268D36843F40053D3600020606407
:103FA000202384F8413084F84230606310BD80F8EB
:103FB0004030FDF7BFFFD7E7012070472DE9F04102
:103FC00082B01E4690F84130DBB2202B4BD1044624
:103FD0000D46904600294AD00AB9012044E000234A
:103FE0004364212380F84130FEF7A6F80746A4F881
:103FF0002480A4F82680A368B3F5805F02D04FF038
:1040000000080FE02369FBB14FF000080AE038F820
:10401000023B2268C3F308035360E28C92B2013A78
:1040200092B2E284E38C9BB28BB100963B460022B5
:1040300080212046FFF74EFFD8B9002DE7D015F8B4
:10404000012B23685A60E8E7A8460025EAE70096B6
:104050003B46002240212046FFF73CFF58B9202371
:1040600084F8413000E0022002B0BDE8F081012078
:10407000FAE70320F8E70320F6E7704708B5016880
:10408000CA6822F04002CA60202280F84120FFF76F
:10409000F4FF002008BD704708B5406A0023C385BF
:1040A000C384FFF7F8FF08BD704790F84230DBB2D9
:1040B000222B69D18368B3F5805F4FD0826AB3F554
:1040C000805F04D0002B56D10369002B53D10368C5
:1040D0005B681370836A01338362C38D9BB2013BBB
:1040E0009BB2C385002B51D100B583B00268D36861
:1040F00023F02003D3600268D36823F48073D36075
:104100000268536923F001035361202380F8423091
:1041100000234363036B012B33D100230363026845
:1041200002F10C0353E8003F23F010030C3242E885
:1041300000310029F3D103681A6812F0100F06D07D
:10414000002201921A6801925B680193019B818DA4
:10415000FFF7AAFF002003B05DF804FB0269002A04
:10416000ACD1826A03685B68C3F308031380836A77
:1041700002338362B1E703685B6803F07F03137067
:10418000A8E7FDF783FBE5E70220704700207047B2
:1041900030B583B0044602681368D068516913F0E3
:1041A0000F0505D113F0200F02D010F0200F19D108
:1041B0002DB111F0010119D110F4907F16D1216BAE
:1041C00001297DD013F0800F03D010F0800F40F054
:1041D000188113F0400F03D010F0400F40F015810C
:1041E00003B030BD2046FFF760FFF9E713F0010F81
:1041F00006D010F4807F03D0626C42F0010262644A
:1042000013F0040F04D019B1626C42F00202626430
:1042100013F0020F04D019B1626C42F00402626420
:1042200013F0080F07D010F0200F00D119B1626C05
:1042300042F008026264626C002AD1D013F0200FB1
:1042400002D010F0200F29D123685B6903F04003EE
:10425000626C12F0080F00D163B32046FFF792FDA5
:1042600023685B6913F0400F20D0226802F1140329
:1042700053E8003F23F04003143242E800310029A4
:10428000F3D1E36B73B1634A5A63E06BFDF7EAFF66
:104290000028A5D0E06B436B9847A1E72046FFF7C5
:1042A00004FFD1E72046FFF7F6FE99E72046FFF727
:1042B000F2FE95E72046FFF7EEFE002363648FE7EA
:1042C00013F0100F3FF47EAF10F0100F3FF47AAFF1
:1042D000002301931368019353680193019B536971
:1042E00013F0400F51D0E26B13685B689BB2002B58
:1042F0003FF476AFA18D99427FF672AFE385936963
:10430000202B37D0226802F10C0353E8003F23F43E
:1043100080730C3242E800310029F3D1226802F1A7
:10432000140353E8003F23F00103143242E8003144
:104330000029F3D1226802F1140353E8003F23F06F
:104340004003143242E800310029F3D1202384F8DD
:10435000423000232363226802F10C0353E8003F3C
:1043600023F010030C3242E800310029F3D1E06B56
:10437000FDF754FF02236363A18DE38D9BB2C91A3D
:1043800089B22046FFF790FE2AE7A18DE38D9BB20C
:10439000C91A89B2E38D9BB2002B3FF421AF0029EB
:1043A0003FF41EAF226802F10C0353E8003F23F4F0
:1043B00090730C3242E800300028F3D1226802F1F9
:1043C000140353E8003F23F00103143242E80030A5
:1043D0000028F3D1202384F842300023236322688D
:1043E00002F10C0353E8003F23F010030C3242E8C3
:1043F00000300028F3D1022363632046FFF754FE08
:10440000EEE62046FFF7ECFCEAE62046FFF736FE34
:10441000E6E600BF9940000881628285C2850023DC
:104420004364222380F84230036923B10268D368D1
:1044300043F48073D3600268536943F0010353610E
:104440000268D36843F02003D3600020704708B5AA
:1044500090F84230DBB2202B08D149B10AB90120D3
:1044600008BD00230363FFF7D7FFF9E70220F7E752
:104470000120F5E7EFF3058393B9EFF3108393B9C8
:104480000C4B1868022804D080B90A4B01221A602C
:104490007047EFF31183002BF6D06FF005007047E3
:1044A0006FF0050070476FF0050070474FF0FF3068
:1044B000704700BF3813002008B5EFF30583B3B988
:1044C000EFF31083B3B90E4B1B68022B08D0012BFE
:1044D00013D10B4B02221A6001F00AF9002008BD2B
:1044E000EFF31182002AF2D06FF00500F7E76FF0CA
:1044F0000500F4E76FF00500F1E74FF0FF30EEE75D
:1045000038130020F0B587B000240494EFF305843D
:10451000002C44D1EFF31083002B40D1344B1B68A7
:10452000022B16D000283AD000238DF817306AB33A
:10453000156895B1936903B918235C1E372C52D8BE
:10454000546814F0010F50D156694EB14FEA960CE1
:1045500008E0EFF3118313BBE4E70DF11705E9E77A
:104560004FF0800C946834B1D768B7F5916F02D3DF
:10457000176907B1B6B914B14FF0FF340CE0D46835
:1045800094B914699CB14FF0FF3405E0002418235E
:104590004FF0800C0DF11705012C0AD0ACB1049836
:1045A00007B0F0BD0124F7E74FF0FF34F4E7002433
:1045B000F2E7146992680292019400930B466246F6
:1045C000294601F023F80490E9E704AA0192009338
:1045D0000B461FFA8CF2294601F054F80128DED070
:1045E00000230493DBE70020DAE70020D8E700BFD0
:1045F0003813002008B5EFF30583A3B9EFF3108358
:10460000A3B90C4B1B68022B02D040B9002008BD97
:10461000EFF31183002BF8D06FF00500F7E701F0FE
:10462000D3F90020F3E76FF00500F0E76FF0050025
:10463000EDE700BF38130020034B0360034B0B6012
:1046400080231360704700BFB00E0020B00C002024
:10465000034B0360034B0B604FF480731360704790
:10466000401700203C13002000F1080343604FF086
:10467000FF328260C3600361002303607047002340
:104680000361704743684B609A688A605160996023
:104690000861036801330360704730B40D68B5F1F9
:1046A000FF3F11D000F108031C465B681A68AA425C
:1046B000FAD963684B6099608C6061600861036837
:1046C0000133036030BC70470469F2E70369416855
:1046D00082688A60416851605A68824206D000222E
:1046E00002611A68013A1A601868704782685A6055
:1046F000F5E7000082B0002301930D4B1B68B3F176
:10470000FF3F08D04FF0500383F31188BFF36F8F42
:10471000BFF34F8FFEE74FF0500383F31188BFF3D1
:104720006F8FBFF34F8F019B002BFCD002B07047FF
:104730000C00002006480068006880F3088862B614
:1047400061B6BFF34F8FBFF36F8F00DF00BF000074
:1047500008ED00E04FF0807340F8043C21F00101C7
:1047600040F8081C034B40F80C3C40F8202C403823
:10477000704700BFF5460008000000000000000080
:10478000074B19680868B0E8F00F80F30988BFF399
:104790006F8F4FF0000080F311884EF00D0E7047C0
:1047A000285800204FF0500383F31188BFF36F8F18
:1047B000BFF34F8F0B4A136801331360012B00D0F6
:1047C00070474FF0E023D3F8043D13F0FF0FF7D00C
:1047D0004FF0500383F31188BFF36F8FBFF34F8FF8
:1047E000FEE700BF0C000020094B1B6843B94FF0E7
:1047F000500383F31188BFF36F8FBFF34F8FFEE732
:10480000013B034A13600BB983F31188704700BF63
:104810000C0000200000000000000000000000006C
:10482000EFF30980BFF36F8F0D4B1A6820E9F00F8B
:1048300010602DE908404FF0500080F3118801F01E
:10484000E9F84FF0000080F31188BDE808401968CE
:104850000868B0E8F00F80F30988BFF36F8F7047E6
:104860002858002008B54FF0500383F31188BFF398
:104870006F8FBFF34F8F00F09FFF28B14FF0E02301
:104880004FF08052C3F8042D002383F3118808BD34
:104890004FF0E022002313619361054B1B6805492B
:1048A000A1FB03139B09013B53610723136170476D
:1048B00000000020D34D621010B582B02A4B1A7848
:1048C000D2B20192FF221A701B78DBB28DF803304E
:1048D0009DF8033003F05003244A1370244B072241
:1048E0001A6009E0224A1368013B13609DF8033007
:1048F0005B00DBB28DF803309DF8033013F0800FBE
:10490000F0D11B4B1B68032B08D04FF0500383F3EF
:104910001188BFF36F8FBFF34F8FFEE71B02144A5E
:10492000136003F4E0631360019BDBB20E4A137063
:104930004FF0E023D3F8202D42F47002C3F8202D6D
:10494000D3F8202D42F07042C3F8202DFFF7A0FFCE
:104950000024084B1C60FFF7EDFE01F05BF8FFF749
:10496000C9FE204602B010BD00E400E0C81B0020D4
:10497000CC1B00200C000020EFF305830F2B0FD978
:10498000114A9B5CDBB2114A12789A4208D94FF067
:10499000500383F31188BFF36F8FBFF34F8FFEE790
:1049A0004FF0E023D3F80C3D03F4E063084A1268AB
:1049B000934208D94FF0500383F31188BFF36F8FF0
:1049C000BFF34F8FFEE77047F0E300E0C81B002005
:1049D000CC1B0020124A12F0070F1ED0D11D21F06F
:1049E0000701C1F5705313440A460E4802600021C6
:1049F00041601344083B23F007030B4803605960F0
:104A00001960991A51601360084B1960084B1960BE
:104A1000084B4FF000421A6070474FF47053E4E7C0
:104A2000D41B0020E0570020D01B0020DC570020C2
:104A3000D8570020D4570020154B1A461B688342D4
:104A4000FBD3516802EB010C844509D0416800EBAF
:104A5000010C634509D00360904218D01060704784
:104A60004068014451601046F0E710B4094C2468D6
:104A7000A3420AD05B681944416013681B68036055
:104A8000904200D0106010BC70470460F8E7704797
:104A9000E0570020D01B002070B5054600F07EFED8
:104AA000344B1B68A3B1344B1B681D424AD135B14E
:104AB000083515F0070F02D025F007050835002D41
:104AC00042D02E4B1B68AB424DD32D4A146804E0F4
:104AD000FFF780FFE7E722461C466368AB4202D23D
:104AE0002368002BF7D1234B1B68A3423DD01668E7
:104AF00008362368136063685B1B102B10D960199C
:104B000010F0070F08D04FF0500383F31188BFF364
:104B10006F8FBFF34F8FFEE743606560FFF78CFF39
:104B2000626816490B689B1A0B60164909688B422C
:104B300001D214490B60104B1B68134363600023C0
:104B4000236002E0002600E0002600F0C1FE16F01F
:104B5000070F0CD04FF0500383F31188BFF36F8F12
:104B6000BFF34F8FFEE70026EFE70026EDE7304664
:104B700070BD00BFD01B0020D4570020D8570020A4
:104B8000E0570020DC57002080B338B50446A0F180
:104B9000080550F8043C164A1268134208D14FF039
:104BA000500383F31188BFF36F8FBFF34F8FFEE77E
:104BB00050F8081C41B14FF0500383F31188BFF344
:104BC0006F8FBFF34F8FFEE723EA020340F8043CE8
:104BD00000F0E4FD54F8041C064A13680B4413600B
:104BE0002846FFF729FF00F073FE38BD704700BF6D
:104BF000D4570020D857002010B50446FFF7D2FD47
:104C0000A26BE36B9A4204D00024FFF7EDFD20462F
:104C100010BD0124F9E710B50446FFF7C3FDA36BEF
:104C200023B90124FFF7E0FD204610BD0024F9E779
:104C300070B504461546866B026C5AB903681BB101
:104C400000200136A66370BD406801F011F8002312
:104C50006360F6E76DB98068FCF704FA226CA3681C
:104C60001344A3606268934219D32368A360284663
:104C7000E7E7C068FCF7F6F9226C5142E3689B1A3B
:104C8000E3602268934202D263680B44E360022D22
:104C900001D00020D5E726B1013E0020D1E728460B
:104CA000CFE70020CDE708B50346026C62B10846A5
:104CB000D9681144D960D3F804C0614501D319689B
:104CC000D960D968FCF7CEF908BD38B50546FFF7BD
:104CD00069FD95F8454064B201E0013C64B2002CE6
:104CE0000ADD6B6A43B105F1240000F017FF0028CC
:104CF000F3D000F0A7FFF0E7FF2385F84530FFF77A
:104D000073FDFFF74FFD95F8444064B201E0013CAC
:104D100064B2002C0ADD2B6943B105F1100000F0EC
:104D2000FDFE0028F3D000F08DFFF0E7FF2385F8AB
:104D30004430FFF759FD38BD38B5E0B10D460446A3
:104D4000FFF730FD2368E26B216C01FB02306060ED
:104D50000020A063A360013A02FB0133E360FF235C
:104D600084F8443084F84530FDB9236963B9FFF70E
:104D70003BFD012038BD4FF0500383F31188BFF392
:104D80006F8FBFF34F8FFEE704F1100000F0C6FEF7
:104D90000028ECD04FF0E0234FF08052C3F8042DF0
:104DA000BFF34F8FBFF36F8FE1E704F11000FFF700
:104DB0005BFC04F12400FFF757FCD8E738B51D462B
:104DC000049C0B4649B92460E0632364012120461A
:104DD000FFF7B2FF84F84C5038BD2260F4E740B9C9
:104DE0004FF0500383F31188BFF36F8FBFF34F8FE2
:104DF000FEE710B584B01C46844653B192B189B920
:104E00004FF0500383F31188BFF36F8FBFF34F8FC1
:104E1000FEE74FF0500383F31188BFF36F8FBFF3AA
:104E20004F8FFEE76AB150230393039B502B13D09F
:104E30004FF0500383F31188BFF36F8FBFF34F8F91
:104E4000FEE70029EFD04FF0500383F31188BFF342
:104E50006F8FBFF34F8FFEE7012384F84630009435
:104E60009DF818306046FFF7A9FF204604B010BD3A
:104E7000F0B585B0019288B10F461D460446B1B128
:104E8000022D20D1E36B012B1DD04FF0500383F393
:104E90001188BFF36F8FBFF34F8FFEE74FF05003C2
:104EA00083F31188BFF36F8FBFF34F8FFEE7036C5F
:104EB000002BE5D04FF0500383F31188BFF36F8FC1
:104EC000BFF34F8FFEE700F0C3FE064658B9019BC3
:104ED000002B48D04FF0500383F31188BFF36F8F3E
:104EE000BFF34F8FFEE700263DE02A4639462046B5
:104EF000FFF79EFE636A7BB948B14FF0E0234FF0A5
:104F00008052C3F8042DBFF34F8FBFF36F8FFFF7AD
:104F10006BFC012005B0F0BD04F1240000F0FEFDA3
:104F20000028F4D04FF0E0234FF08052C3F8042D56
:104F3000BFF34F8FBFF36F8FE9E7FFF755FC0020FA
:104F4000E8E702A800F030FE012619E0002384F80B
:104F5000443021E0002384F8453023E02046FFF769
:104F6000B4FE00F0B5FCFFF71DFCA26BE36B9A42A8
:104F7000BBD3022DB9D0019B002BDED0002EE0D098
:104F8000FFF732FC00F00AFCFFF70CFC94F8442019
:104F900052B2B2F1FF3FD9D094F8452052B2B2F1EB
:104FA000FF3FD7D0FFF720FC01A902A800F008FEC0
:104FB000D8B92046FFF720FE0028CFD0019904F190
:104FC000100000F077FD2046FFF77FFE00F080FC28
:104FD0000028C8D14FF0E0234FF08052C3F8042DD1
:104FE000BFF34F8FBFF36F8FBDE72046FFF76DFE16
:104FF00000F06EFC00208DE72DE9F84390B10F46DC
:1050000016461C460546B1B1022C20D1EB6B012B94
:105010001DD04FF0500383F31188BFF36F8FBFF3A0
:105020004F8FFEE74FF0500383F31188BFF36F8F6C
:10503000BFF34F8FFEE7036C002BE5D04FF050031A
:1050400083F31188BFF36F8FBFF34F8FFEE7FFF736
:1050500093FCEFF311894FF0500383F31188BFF3F2
:105060006F8FBFF34F8FAA6BEB6B9A4206D3022C64
:1050700004D0002089F31188BDE8F88395F84580B5
:105080004FFA88F8224639462846FFF7D1FDB8F195
:10509000FF3F06D008F101035BB285F845300120DF
:1050A000E8E76B6A0BB90120E4E705F1240000F0A2
:1050B00035FD18B126B101203060DBE70120D9E7CA
:1050C0000120D7E7F0B585B0019290B10F460446B4
:1050D000C1B100F0BDFD064600BB019B002B5ED0B8
:1050E0004FF0500383F31188BFF36F8FBFF34F8FDF
:1050F000FEE74FF0500383F31188BFF36F8FBFF3C8
:105100004F8FFEE7036C002BE3D04FF0500383F387
:105110001188BFF36F8FBFF34F8FFEE700263EE08D
:1051200039462046FFF7BFFD013DA563236923B93A
:10513000FFF75AFB012005B0F0BD04F1100000F0AC
:10514000EDFC0028F4D04FF0E0234FF08052C3F87C
:10515000042DBFF34F8FBFF36F8FE9E7FFF744FBD9
:105160000020E8E702A800F01FFD012621E000234F
:1051700084F8443029E0002384F845302BE02046B1
:10518000FFF7A3FD00F0A4FB09E02046FFF79DFD1B
:1051900000F09EFB2046FFF73EFD00283FD1FFF7C1
:1051A00001FBA56B002DBBD1019B002BD6D0002E9F
:1051B000D8D0FFF719FB00F0F1FAFFF7F3FA94F8F3
:1051C00044305BB2B3F1FF3FD1D094F845305BB2CD
:1051D000B3F1FF3FCFD0FFF707FB01A902A800F012
:1051E000EFFC0028D1D12046FFF715FD0028C6D0DE
:1051F000019904F1240000F05DFC2046FFF765FDF5
:1052000000F066FB0028CAD14FF0E0234FF0805237
:10521000C3F8042DBFF34F8FBFF36F8FBFE700209C
:1052200089E700000023072B0CD8074A52F83320E7
:105230000AB10133F7E7044A42F8331002EBC30323
:1052400058607047704700BFE857002070B50446AB
:105250000D461646FFF7A6FA94F844305BB2B3F158
:10526000FF3F0DD094F845305BB2B3F1FF3F0BD058
:10527000FFF7BAFAA36B5BB12046FFF726FD70BDBE
:10528000002384F84430EDE7002384F84530EFE74D
:105290003246294604F1240000F024FCECE700002B
:1052A000084B1B681B6823B9074B4FF0FF321A608D
:1052B0007047044B1B68DB68DB685A68024B1A6056
:1052C000704700BF2C580020D85C00202DE9F04723
:1052D00080460D4617469946089EDDF824A00A9C94
:1052E0009200A521206B02F057FA236B07F1804250
:1052F000013A03EB820727F007074FF0000CBCF1DF
:105300000F0F0BD815F80C2004EB0C0383F8342096
:1053100015F80C3013B10CF1010CF0E7002384F800
:105320004330372E00D93726E662E664002525652E
:10533000201DFFF7A4F904F11800FFF7A0F924617C
:10534000C6F13806A6616462C4F8805484F88454B7
:105350004FF48562294604F1580002F01DFA04F565
:105360005173E36504F56B73236604F214436366BB
:1053700001220023C4E9402343F20E33A4F808318C
:105380004AF6CD33A4F80A3141F23423A4F80C31A3
:105390004EF26D63A4F80E314DF6EC63A4F81031B3
:1053A0000523A4F812310B23A4F814314A464146D0
:1053B0003846FFF7CFF92060BAF1000F01D0CAF8E4
:1053C0000040BDE8F087000038B5002407E004EB9A
:1053D000840293000E481844FFF746F90134372C35
:1053E000F5D90C4D2846FFF73FF90B4C2046FFF747
:1053F0003BF90A48FFF738F90948FFF735F909483A
:10540000FFF732F9084B1D60084B1C6038BD00BF28
:1054100034580020AC5C0020C05C0020E05C002020
:105420000C5D0020F85C00202C5800203058002033
:1054300010B50446FFF7B6F9224A1368013313602A
:10544000214B1B685BB1214B1B686BB91E4B1B6862
:10545000DA6AE36A9A4207D81B4B1C6004E01A4BD5
:105460001C601368012B29D0194A1368013313609B
:105470006364E06A174B1B68984201D9154B1860AA
:1054800000EB8000211D144B03EB8000FFF7FAF8BE
:10549000FFF7AAF90D4B1B687BB10B4B1B68DA6A4F
:1054A000E36A9A4209D24FF0E0234FF08052C3F8EA
:1054B000042DBFF34F8FBFF36F8F10BDFFF784FF35
:1054C000D2E700BF945C002028580020F45C002044
:1054D000A45C0020A85C00203458002010B50446CD
:1054E000583002F0CFF994F8853463B1012B11D014
:1054F000022B0ED04FF0500383F31188BFF36F8F50
:10550000BFF34F8FFEE7206BFFF73EFB2046FFF710
:105510003BFB10BD2046FFF737FBFAE70F4B1B683C
:10552000D3B110B5FFF73EF90D4BDB68DC68201DE9
:10553000FFF7CCF80B4A1368013B1360074A136866
:10554000013B1360FFF750F92046FFF7C7FF034BFD
:105550001B68002BE6D110BD704700BF985C00208F
:105560000C5D0020945C002008B5FFF7D7FF074BC7
:105570001B68012BF9D94FF0E0234FF08052C3F89C
:10558000042DBFF34F8FBFF36F8FEEE73458002029
:1055900070B504460D46174B1E68174B186804304B
:1055A000FFF794F8B4F1FF3F0DD03444124B1B6861
:1055B0005C60A64210D9114B18680F4B1968043172
:1055C000FFF76BF870BD002DEFD00B4B196804315D
:1055D0000B48FFF757F8F5E70A4B1868064B1968B0
:1055E0000431FFF75AF8084B1B68A342EAD9064B6F
:1055F0001C60E7E7205D002028580020305800207C
:10560000F85C00202C580020D85C002030B587B012
:105610000B9C8CB10C9DC5B14FF491650495049D14
:10562000B5F5916F1AD04FF0500383F31188BFF393
:105630006F8FBFF34F8FFEE74FF0500383F3118856
:10564000BFF36F8FBFF34F8FFEE74FF0500383F32D
:105650001188BFF36F8FBFF34F8FFEE70C9D2C6354
:10566000022485F8854400240394029505AC019436
:105670000A9C0094FFF72AFE0C98FFF7D9FE0598C4
:1056800007B030BD2DE9F04385B007468846144683
:105690001E469000FFF700FA08B381464FF4916070
:1056A000FFF7FAF90546B0B1C0F83090E5B1002334
:1056B00085F88534039302950D9B01930C9B009311
:1056C0003346224641463846FFF700FE2846FFF79C
:1056D000AFFE012005E04846FFF756FAE6E74FF037
:1056E000FF3005B0BDE8F0834FF0FF30F9E7000070
:1056F00010B588B000240594069407AA06A905A849
:10570000FEF79AFF059B0293069B019300942346A4
:10571000079A1A491A48FFF779FF1A4B186040B1E7
:1057200000F05AFB012806D0B0F1FF3F1DD008B0B1
:1057300010BD0020F6E74FF0500383F31188BFF34C
:105740006F8FBFF34F8F104B1B6858330F4A136096
:105750000F4B4FF0FF321A600E4B01221A600E4BB6
:1057600000221A60FFF7A8F8E1E74FF0500383F337
:105770001188BFF36F8FBFF34F8FFEE728E7000854
:1057800069550008D45C0020285800201C00002027
:10579000D85C0020F45C0020205D0020024A1368E1
:1057A00001331360704700BFA05C0020014B1868F4
:1057B000704700BF205D0020F8B53A4B1B68002BF6
:1057C00064D1394B1D6801351D60C5B9374B1B6865
:1057D0001B6843B14FF0500383F31188BFF36F8F01
:1057E000BFF34F8FFEE7314A1168314B18681060E4
:1057F0001960304A136801331360FFF751FD2E4BD7
:105800001B68AB4238D900272C4B1B68DB6A03EBC3
:1058100083039A002A4B9B58012B3CD901273AE07D
:105820000127224B1B681B6843B3204B1B68DB68B6
:10583000DC6863689D4226D3261D3046FEF746FF8E
:10584000A36A1BB104F11800FEF740FFE36A1D4A8A
:105850001268934201D91B4A136003EB83039A0039
:10586000314617481044FEF70DFFE26A134B1B68E0
:10587000DB6A9A42D4D2D4E70027D2E70E4B4FF02E
:10588000FF321A60C0E70C4A1360BDE70E4A136886
:105890000133136000270D4B1B6803B10127384605
:1058A000F8BD00BFA05C0020205D00202C58002027
:1058B00030580020DC5C0020D85C002028580020F4
:1058C00034580020A85C00209C5C0020245D00204F
:1058D00038B5354B1B6843B94FF0500383F311883B
:1058E000BFF36F8FBFF34F8FFEE7FEF75BFF2E4BCB
:1058F0001A68013A1A601B68002B4FD12B4B1B68AA
:105900000BB900244BE00024294B1B681BB3284B28
:10591000DB68DC6804F11800FEF7D8FE251D284678
:10592000FEF7D4FEE06A234B1B68984201D9214B55
:10593000186000EB800029461F4B03EB8000FEF748
:10594000A1FEE26A1D4B1B68DB6A9A42DCD31C4B4A
:1059500001221A60D8E70CB1FFF7A2FC194B1C68B2
:1059600084B9174B1C68D4B14FF0E0234FF080523C
:10597000C3F8042DBFF34F8FBFF36F8F01240EE0E8
:10598000013C07D0FFF718FF0028F9D00C4B01228B
:105990001A60F5E70B4B00221A60E2E70024FEF7DD
:1059A00023FF204638BD00BFA05C0020945C00208F
:1059B000E05C0020A85C002034580020285800201B
:1059C000245D00209C5C002010B5A8B10446104B5B
:1059D0001B6843B14FF0500383F31188BFF36F8FFF
:1059E000BFF34F8FFEE7FFF7D9FE00212046FFF7F8
:1059F000CFFDFFF76DFF48B94FF0E0234FF0805225
:105A0000C3F8042DBFF34F8FBFF36F8F10BD00BFDE
:105A1000A05C0020214B1B681BB1214B01221A60A6
:105A200070471F4B00221A601E4B1B6803EB83015B
:105A30008A001D498A585AB90BB1013BF6E74FF06D
:105A4000500383F31188BFF36F8FBFF34F8FFEE7CF
:105A500003EB830082000A4450684068506003EB07
:105A6000830C4FEA8C020832114488420FD003EBBA
:105A7000830291000C4A0A445268D1680B4A1160B3
:105A800008490B6013685833094A1360704740682F
:105A900062469100044A0A445060E8E7A05C002096
:105AA000245D0020A85C00203458002028580020E5
:105AB0001C00002058B110B50C46094A1168183175
:105AC000FEF7EBFD01212046FFF762FD10BD4FF010
:105AD000500383F31188BFF36F8FBFF34F8FFEE73F
